{
  "contractName": "land_registry",
  "abi": [
    {
      "constant": true,
      "inputs": [
        {
          "name": "",
          "type": "uint256"
        }
      ],
      "name": "lands",
      "outputs": [
        {
          "name": "landAddress",
          "type": "bytes"
        },
        {
          "name": "area",
          "type": "uint256"
        },
        {
          "name": "value",
          "type": "uint256"
        }
      ],
      "payable": false,
      "stateMutability": "view",
      "type": "function"
    },
    {
      "anonymous": false,
      "inputs": [
        {
          "indexed": false,
          "name": "id",
          "type": "uint256"
        },
        {
          "indexed": false,
          "name": "_landAddress",
          "type": "bytes"
        },
        {
          "indexed": false,
          "name": "_area",
          "type": "uint256"
        },
        {
          "indexed": false,
          "name": "_value",
          "type": "uint256"
        }
      ],
      "name": "registerLandEvent",
      "type": "event"
    },
    {
      "constant": false,
      "inputs": [
        {
          "name": "_arg",
          "type": "uint256"
        }
      ],
      "name": "setValueMultiplier",
      "outputs": [],
      "payable": false,
      "stateMutability": "nonpayable",
      "type": "function"
    },
    {
      "constant": true,
      "inputs": [
        {
          "name": "_landAddress",
          "type": "bytes"
        },
        {
          "name": "_area",
          "type": "uint256"
        }
      ],
      "name": "checkLandAvailable",
      "outputs": [
        {
          "name": "",
          "type": "bool"
        }
      ],
      "payable": false,
      "stateMutability": "view",
      "type": "function"
    },
    {
      "constant": false,
      "inputs": [
        {
          "name": "_landAddress",
          "type": "bytes"
        },
        {
          "name": "_area",
          "type": "uint256"
        }
      ],
      "name": "registerLand",
      "outputs": [],
      "payable": false,
      "stateMutability": "nonpayable",
      "type": "function"
    }
  ],
  "bytecode": "0x608060405234801561001057600080fd5b50610942806100206000396000f3fe608060405260043610610062576000357c0100000000000000000000000000000000000000000000000000000000900463ffffffff16806302dfebca14610067578063d3ee70fc146100a2578063e261f1e51461018c578063f15c589e1461024e575b600080fd5b34801561007357600080fd5b506100a06004803603602081101561008a57600080fd5b8101908080359060200190929190505050610320565b005b3480156100ae57600080fd5b50610172600480360360408110156100c557600080fd5b81019080803590602001906401000000008111156100e257600080fd5b8201836020820111156100f457600080fd5b8035906020019184600183028401116401000000008311171561011657600080fd5b91908080601f016020809104026020016040519081016040528093929190818152602001838380828437600081840152601f19601f8201169050808301925050505050505091929192908035906020019092919050505061032a565b604051808215151515815260200191505060405180910390f35b34801561019857600080fd5b506101c5600480360360208110156101af57600080fd5b81019080803590602001909291905050506104c3565b6040518080602001848152602001838152602001828103825285818151815260200191508051906020019080838360005b838110156102115780820151818401526020810190506101f6565b50505050905090810190601f16801561023e5780820380516001836020036101000a031916815260200191505b5094505050505060405180910390f35b34801561025a57600080fd5b5061031e6004803603604081101561027157600080fd5b810190808035906020019064010000000081111561028e57600080fd5b8201836020820111156102a057600080fd5b803590602001918460018302840111640100000000831117156102c257600080fd5b91908080601f016020809104026020016040519081016040528093929190818152602001838380828437600081840152601f19601f82011690508083019250505050505050919291929080359060200190929190505050610594565b005b8060008190555050565b600080600090505b6001805490508110156104b757838051906020012060018281548110151561035657fe5b906000526020600020906003020160000160405180828054600181600116156101000203166002900480156103c25780601f106103a05761010080835404028352918201916103c2565b820191906000526020600020905b8154815290600101906020018083116103ae575b505091505060405180910390201480156103fb5750826001828154811015156103e757fe5b906000526020600020906003020160010154145b1561040a5760009150506104bd565b838051906020012060018281548110151561042157fe5b9060005260206000209060030201600001604051808280546001816001161561010002031660029004801561048d5780601f1061046b57610100808354040283529182019161048d565b820191906000526020600020905b815481529060010190602001808311610479575b5050915050604051809103902014156104aa5760009150506104bd565b8080600101915050610332565b50600190505b92915050565b6001818154811015156104d257fe5b9060005260206000209060030201600091509050806000018054600181600116156101000203166002900480601f01602080910402602001604051908101604052809291908181526020018280546001816001161561010002031660029004801561057e5780601f106105535761010080835404028352916020019161057e565b820191906000526020600020905b81548152906001019060200180831161056157829003601f168201915b5050505050908060010154908060020154905083565b600115156105a2838361032a565b15151415156105b057600080fd5b6000806105bd8484610762565b91509150336002600084815260200190815260200160002060006101000a81548173ffffffffffffffffffffffffffffffffffffffff021916908373ffffffffffffffffffffffffffffffffffffffff16021790555061066581600360003373ffffffffffffffffffffffffffffffffffffffff1673ffffffffffffffffffffffffffffffffffffffff1681526020019081526020016000205461080390919063ffffffff16565b600360003373ffffffffffffffffffffffffffffffffffffffff1673ffffffffffffffffffffffffffffffffffffffff168152602001908152602001600020819055507f05f9412fbe9baa4a4580ec0caeb9df2740156ca1fcaf5caf0018329c6aea403b828585846040518085815260200180602001848152602001838152602001828103825285818151815260200191508051906020019080838360005b8381101561071f578082015181840152602081019050610704565b50505050905090810190601f16801561074c5780820380516001836020036101000a031916815260200191505b509550505050505060405180910390a150505050565b600080600061077084610821565b90506000600180606060405190810160405280898152602001888152602001858152509080600181540180825580915050906001820390600052602060002090600302016000909192909190915060008201518160000190805190602001906107da929190610871565b506020820151816001015560408201518160020155505003905080829350935050509250929050565b600080828401905083811015151561081757fe5b8091505092915050565b600061082f82600054610836565b9050919050565b600080831415610849576000905061086b565b6000828402905082848281151561085c57fe5b0414151561086657fe5b809150505b92915050565b828054600181600116156101000203166002900490600052602060002090601f016020900481019282601f106108b257805160ff19168380011785556108e0565b828001600101855582156108e0579182015b828111156108df5782518255916020019190600101906108c4565b5b5090506108ed91906108f1565b5090565b61091391905b8082111561090f5760008160009055506001016108f7565b5090565b9056fea165627a7a723058208abfadcd5aaecc57e820d352078687fbe29cf794a2e3357b104a818dddcc06f60029",
  "source": "pragma solidity^\"0.5.0\";\r\n\r\nimport \"./safemath.sol\";\r\n\r\n\r\n\r\ncontract land_registry {\r\n    \r\n    using SafeMath for uint256;\r\n\r\n    struct Land{\r\n        bytes landAddress;\r\n        uint256 area;\r\n        uint256 value;\r\n    }\r\n    \r\n    uint256 valueMultiplier;\r\n    \r\n    Land[] public lands;\r\n    \r\n    mapping(uint=>address) landToOwner;\r\n    mapping(address=>uint) totalValueOfOwner;\r\n    \r\n    event registerLandEvent(uint id, bytes _landAddress, uint  _area, uint _value);\r\n    \r\n    function setValueMultiplier(uint _arg) public {\r\n        valueMultiplier=_arg;\r\n    }\r\n\r\n    function checkLandAvailable(bytes memory _landAddress, uint _area) public view returns(bool){\r\n        \r\n        for(uint i=0;i<lands.length;i++){\r\n            if(keccak256(lands[i].landAddress)==keccak256(_landAddress) && lands[i].area==_area){\r\n                return false;\r\n            }\r\n            else if (keccak256(lands[i].landAddress)==keccak256(_landAddress)){\r\n                return false;\r\n            }\r\n        }\r\n        \r\n        return true;\r\n    }\r\n    \r\n    function _calcVal(uint256 _area)internal view returns(uint256){\r\n        return SafeMath.mul(_area, valueMultiplier);\r\n    }\r\n    \r\n    function _createLand(bytes memory _landAddress, uint _area) internal returns(uint _id, uint _value){\r\n        uint value=_calcVal(_area);\r\n        uint id=lands.push(Land(_landAddress, _area, value))-1;\r\n        return (id, value) ;\r\n    }\r\n    \r\n    function registerLand(bytes  memory _landAddress, uint _area) public{\r\n        require(checkLandAvailable(_landAddress,_area)==true);\r\n        (uint id, uint value) = _createLand(_landAddress,_area);\r\n        landToOwner[id]=msg.sender;\r\n        totalValueOfOwner[msg.sender]=totalValueOfOwner[msg.sender].add(value);\r\n        emit registerLandEvent(id, _landAddress, _area, value);\r\n    }\r\n    \r\n    \r\n    \r\n}",
  "sourcePath": "/media/tezansahu/Windows/Tezan/Github Repos/MakETH_LandRegistry/contracts/land_registration.sol",
  "compiler": {
    "name": "solc",
    "version": "0.5.0+commit.1d4f565a.Emscripten.clang"
  },
  "schemaVersion": "3.0.0",
  "updatedAt": "2019-03-01T18:01:31.291Z",
  "devdoc": {
    "methods": {}
  },
  "userdoc": {
    "methods": {}
  }
}